:020000040800F2
:10400000FFFF0120F9860108211601082316010887
:10401000451701085D170108751701080000000029
:10402000000000000000000000000000413C030808
:104030008D17010800000000E13C0308111601087B
:10404000798701087987010879870108798701084C
:10405000798701087987010859EB000879EB000896
:1040600099EB0008B9EB0008DDEB0008A9FC00089B
:104070002D0C0108CDFC00081120010879870108EA
:104080005D0C01088D0C010879870108798701080A
:1040900079870108798701087987010805EC00080C
:1040A00079870108798701087987010879870108EC
:1040B0007987010885E50008798701089DFC0008DB
:1040C00091FC000879870108798701087987010840
:1040D0007987010879870108E92001087120010822
:1040E000E1EC0008798701087987010879870108E0
:1040F00079870108D9E8000879870108E10C0108EF
:10410000798701087987010849E40008798701085F
:104110007987010879870108798701089D86010858
:10412000598B000879870108798701087987010888
:10413000798701087987010879870108798701085B
:104140007987010879870108798701081516010820
:10415000F18A000879870108712701086D27010895
:10416000C1FC0008B5FC00087987010879870108BF
:10417000798701087987010879870108798701081B
:08418000798701087987010825
:1041C00038B510EE105A25F00044B4F1A14FF0EECE
:1041D000407A0DD3B4F1FF4F58D8DFED4F7A9FED01
:1041E0004F7A002DCCBFB0EE470AB0EE670A38BD5B
:1041F0004B4B9C4259D8B4F1445F4AD34FF0FF3245
:1042000027EEA76A9FED475A9FED477ADFED475AA1
:10421000DFED474A66EE066A531CA6EE857AE6EEA7
:10422000A54A9FED445ADFED445AA7EE265AE4EE24
:10423000A65A9FED427ADFED424AA5EE267AE5EED8
:10424000A64A9FED405ADFED405AA7EE265A9FED51
:104250003F7AA4EEA67AE5EE265A27EE267AA5EE58
:10426000867A27EE877A35D0394B03EB820393EDBC
:10427000046AD3ED006A37EE467A002D37EE677A8E
:1042800036EEC70AB3DAB1EE400A38BD30EE000AA6
:1042900038BD9FED307A30EE077AF7EE006AB4EE63
:1042A000E67AF1EE10FAA9DD38BD00F0B1F82A4B3C
:1042B0009C4212D8A3F5D0039C4223D8F0EE007A9A
:1042C000BFEE007AA0EE277A002230EE270AC7EE72
:1042D000007A95E737EEC70A38BD204B9C420BD8D1
:1042E000F7EE087AB7EE007AA0EE277A022230EED7
:1042F000670AC0EE077A83E7BFEE007AC7EE007A5E
:1043000003227DE7F7EE007A30EE677A30EE270A77
:104310000122C7EE007A73E7DB0FC9BFDB0FC93F8D
:10432000FFFFDF3ED769853C59DA4B3D21A215BD21
:104330006BF16EBD356B883D95879DBD6E2EBA3D88
:10434000388EE3BD2549123EABAAAA3ECDCC4CBE69
:10435000C04C0408CAF24971FFFF973FFFFF1B40A2
:1043600008B52DED028BF0EE408AB0EE608A00F0C9
:10437000A1F8F4EE488AF1EE10FA06D6DFED098ACC
:10438000B4EE688AF1EE10FA02D0BDEC028B08BDE3
:1043900002F09CFF88EEA80ABDEC028B212303608B
:1043A00008BD00BF0000000010EE101AC1F3C75294
:1043B0000029A2F17F0CACBF01204FF0FF30BCF10F
:1043C0001E0F0FDCBCF1000F1DDBC1F31603BCF1A7
:1043D000160F43F400030ADD963A03FA02F202FBD9
:1043E00000F07047FDEEC07A17EE900A70474FF468
:1043F000800242FA0CF21A44CCF1170C22FA0CF2A9
:1044000002FB00F07047BCF1FF3F18BF002070476F
:1044100010EE103A23F0004300EE103A704700BF50
:1044200008B52DED028BF0EE408AB0EE608A00F008
:10443000CBFE20B9B0EE480ABDEC028B08BDB0EE51
:10444000480A00F0C1FE20B1F4EEC88AF1EE10FA7D
:10445000F0D5B0EE680ABDEC028B08BD08B52DEDB5
:10446000028BB0EE408A00F08DF9B4EE488AF1EE8E
:1044700010FAF0EE408A0AD6B0EE480AFFF7C8FFFD
:10448000F7EE007AB4EEE70AF1EE10FA04DCB0EED3
:10449000680ABDEC028B08BD02F018FFBDEC028B70
:1044A000034621221A600248BDE8084000F0F8BA2D
:1044B0009CA1060830B583B0CDED010A019A22F027
:1044C000004E0EF1FF33B3F1FF4F42D210EE104A0F
:1044D00024F00040B0F1FF4F3BD270453FDB04F0C9
:1044E00000413ED014F0FF4F02F0FF4558D14FEA93
:1044F000002C6FF07D034FEA4C0CBCF1000F03F170
:10450000FF33F8DC002D5CD14FEA0E226FF07D0CFA
:1045100052000CF1FF3CFBD513F17E0F63DA6FF014
:104520007D02D21A90406FF07D02A2EB0C020EFACF
:1045300002F2B3EB0C0305D11AE012D04FEA4E00A1
:10454000013B15D0A0EB020EBEF1000FF5DA4000E2
:10455000F6E7DDED017A60EE277A87EEA70A03B071
:1045600030BD234B03EB517393ED000A03B030BD14
:10457000831A48BF03461BB9F3E75B000CF1FF3C0D
:10458000B3F5000FF9DB1CF17E0F23DBA3F500036D
:104590000CF17F0C0B4343EACC5300EE103ADEE7FC
:1045A000C3157F3B002DAFD04FEAEE5EC4F3160477
:1045B000AEF17F0C44F40000C2F3160242F4000294
:1045C000B7E76FF07D044FEAEE5EE41AAEF17F0CC0
:1045D000A040F1E76FF07D02A2EB0C0213410B4308
:1045E00000EE103ABBE7C4F3160444F400009AE767
:1045F000E04C040808B52DED028BB0EE608A00F0A7
:1046000053F8B4EE488AF1EE10FA06D6DFED098AC7
:10461000B4EE688AF1EE10FA02D0BDEC028B08BD50
:1046200002F054FE88EEA80ABDEC028B2123036041
:1046300008BD00BF0000000010EE103A184923F03A
:1046400000428A421AD9B2F1FF4F02D330EE400A3B
:10465000704700B583B0684600F0F0FE00F003003C
:104660000128DDED010A9DED000A10D0022809D0D5
:1046700090B900F01BFB03B05DF804FBDFED090A05
:1046800000F014BB00F012FBB1EE400AF3E700F0BB
:104690008DFEB1EE400AEEE7012000F087FEEAE76A
:1046A000D80F493F00000000F8B510EE906A26F0E0
:1046B00000456B1EB3F1FF4F2DED028BF0EE407AFB
:1046C000B0EE608A34D210EE104A24F00047B7F101
:1046D000FF4F2DD2B5F1FE4F38D3BD422FD0B0EEF3
:1046E000670AFFF795FEF0EE407AB0EE480AB0EEAA
:1046F000678AFFF78DFE16F0FE4F2ED178EE087A0E
:10470000F4EEC07AF1EE10FA08DD38EE408A78EE69
:10471000087AF4EEC07AF1EE10FA2EDA18EE103ABA
:10472000BDEC028B04F00044634000EE103AF8BD8B
:1047300067EE887ABDEC028B87EEA70AF8BDBDEC68
:10474000028B9FED0F0A27EE800AF8BD70EEA00ADB
:10475000FFF7B0FEF0EE407ABFE7F6EE007A60EECB
:10476000277AB4EEE78AF1EE10FAD7DD38EE408A08
:10477000F4EEC87AF1EE10FAD0D838EE408ACDE7E0
:104780000000000008B510EE102A22F00043B3F13B
:104790007E5F2DED028B12D00AD8B3F17C5F19D267
:1047A000B3F10C5F6AD8BDEC028B9FED760A08BDB1
:1047B00070EE407A87EEA70ABDEC028B08BDBDEC17
:1047C000028B9FED710ADFED717A002AC8BFB0EE4F
:1047D000670A08BD002AC0F28E80F7EE008A38EE24
:1047E000C00AF6EE007A20EE278AB0EE480A01F001
:1047F00053FBDFED677A9FED677ADFED676ADFEDE8
:10480000675A9FED676AA8EE277ADFED667AE7EED2
:10481000086AE8EE067AE6EE885A9FED636A9FED35
:10482000637ADFED636AA5EE886AA7EE887ADFED2A
:10483000617AE6EE087A10EE103AE7EE086A6FF356
:104840000B03B0EE677A07EE903AF0EE485AE7EEC7
:10485000E75AE6EE888A30EE276A27EE087AC5EE38
:10486000866A87EE286ABDEC028BB0EE667AA0EE0F
:10487000067A37EE870A30EE000A08BD20EE007A8D
:10488000DFED437A9FED436ADFED436A9FED445AC3
:10489000DFED425AA7EE276ABDEC028BE6EE076A0F
:1048A000DFED407A9FED416AE7EE057AE6EE875A42
:1048B000A7EE876A9FED3C5ADFED3D7ADFED3D6A5A
:1048C000A5EE875AE6EE077AE5EE076AF7EE005A9C
:1048D000E7EE875A26EE877A9FED376ADFED377A63
:1048E000C7EE256AB0EE467AA0EE667A30EE470A49
:1048F00037EEC00A08BDB7EE007A30EE070AF6EED2
:10490000007A60EE277ADFED226A9FED226ADFED02
:10491000224ADFED235A9FED215A9FED268AA7EE0A
:10492000A66ADFED206AE6EE274AE7EEA56ADFED2C
:104930001F5A9FED1D6AA4EEA75AE6EEA75ADFEDB7
:104940001C6AA5EE276AE5EEA76AA6EE278AA6EE00
:10495000A77A28EE278AF0EE478AB0EE670A01F0C0
:104960009BFA88EE286A9FED167ADFED167AA0EEA4
:10497000067AF0EE006A37EE007AE7EE667AB0EE7D
:10498000670A19E7DB0FC93FDB0F49400000000051
:1049900008EF1138047F4F3A461124BDA80A4E3E55
:1049A0002EC69D3D613330BF90B0A6BE2D5701404D
:1049B00039D119C0ABAA2A3E6821A233DA0FC93F08
:1049C0006821A2B3DA0F494008B52DED028BB0EE95
:1049D000408A01F061FAB4EE488AF1EE10FA06D688
:1049E000DFED098AB4EEE88AF1EE10FA02D4BDECEC
:1049F000028B08BD02F06AFC88EEA80ABDEC028BAF
:104A00002123036008BD00BF0000000000F028BCA7
:104A100008B52DED028BF0EE408AB0EE608A00F012
:104A2000D3FB20B9B0EE480ABDEC028B08BDB0EE56
:104A3000480A00F0C9FB20B1F4EEC88AF1EE10FA82
:104A4000F0DDB0EE680ABDEC028B08BD10EE103A46
:104A5000114A23F00043934218D9B3F1FF4F02D318
:104A600030EE400A704700B583B0684600F0E6FCBF
:104A7000400000F00200DDED010A9DED000AC0F1EA
:104A8000010000F00BFE03B05DF804FBDFED030A4C
:104A9000012000F003BE00BFDA0F493F0000000014
:104AA0009FED010A704700BF0000C07F08B52DEDE3
:104AB000048BB0EE608AB0EE409A01F0F1F9B4EEEA
:104AC000488AF1EE10FAF0EE408A0BD6B5EE409A25
:104AD000F1EE10FA17D1B5EE408AF1EE10FA06D1D8
:104AE000F7EE008AB0EE680ABDEC048B08BDB0EEAC
:104AF000480A00F031FB0028F4D0B5EEC08AF1EE90
:104B000010FAEFD525E000F027FB88B1F5EE408ADA
:104B1000F1EE10FAE6D1B0EE490A00F01DFB0028D4
:104B2000E0D0B0EE480A00F017FB0028DAD010E021
:104B3000B0EE490A00F010FB0028E7D0B0EE480ABA
:104B400000F00AFB0028E1D0F4EE688AF1EE10FADA
:104B500004D602F0BBFB22230360C3E702F0B6FBDE
:104B600021230360BEE700BF82B08DED010A019AE8
:104B700022F00043B3F1FF4F3CD2BBB312F0FF4F22
:104B800006EE903A3AD1DFED227A2248224B66EEC9
:104B9000A77A17EE901AA0FB010103EB510307EE71
:104BA000103A27EE076ADFED1D7ADFED1D4A9FED13
:104BB0001D5AC6EE265A02F000429FED1B6ADFED39
:104BC0001B6AE7EE257AC4EEA75A77EE857A77EE70
:104BD000A57A86EE270A30EE260A20EE070A10EEA6
:104BE000103A134300EE103A02B070479DED010AEF
:104BF00002B0704730EE000A02B0704705480C4919
:104C0000A0FB030301EB530307EE103AC9E700BF13
:104C10000000804BABAAAAAAF2195126B0F80A3FAD
:104C2000F18E34BF5007B53FDBB6CD3F6EDBB63EED
:104C3000F219512A08B52DED028BB0EE408A01F031
:104C4000E3FCF0EE408AB0EE480A00F085FA68B165
:104C5000DFED127AB4EEE78AF1EE10FA0BDCDFED4D
:104C6000107AB4EEE78AF1EE10FA0FD4B0EE680ACB
:104C7000BDEC028B08BDDFED0B8A02F027FBB0EE26
:104C8000680ABDEC028B2223036008BD02F01EFB04
:104C90002223DFED058A0360E8E700BF1772B14207
:104CA000B5F1CFC20000807F0000000010EE103A86
:104CB00023F00043B3F1485F2CD2FDEEC07A17EE2B
:104CC000903A002B60D060EE007A9FED317A9FED34
:104CD000315ADFED315A9FED316ADFED316AA7EECF
:104CE000875A9FED307AE7EE855AA7EEA56AA7EEC0
:104CF000867AE7EE876A67EEA66A60EEC00AB6EECD
:104D0000007AE7EEA60AB7EE000AD7EE870A30EE81
:104D1000600A704760EE007A9FED1D7A9FED1D5A84
:104D2000DFED1D5A9FED1D6ADFED1D6A1E4AA7EEDD
:104D3000875A93429FED1B7AE5EE275AA5EEA76AA4
:104D4000A6EE277AE7EE276A66EEA76AD5D9174A54
:104D5000934214D803F17F4307EE103AB7EE006A8E
:104D600036EE476A60EEC00AF6EE005A97EEA57A74
:104D7000E7EEA60A37EE607A36EE470A7047B6EEDF
:104D8000076AB5EE027AEDE7B7EE000A704700BF9A
:104D90004ED747ADF6740F317CF293B4010DD03786
:104DA000ABAA2A3D610BB6BA9999993E0000483FDB
:104DB00010EE102AC2F3C7537F3B162B22F000419E
:104DC00029DC002B104618DB1A4919410A4221D070
:104DD000DFED197A70EE277AF5EEC07AF1EE10FA6F
:104DE00018DD002A04DA4FF4000242FA03F31844F3
:104DF00020EA010300EE103A7047DFED0F7A70EE03
:104E0000277AF5EEC07AF1EE10FA03DD002A08DB0E
:104E10009FED0A0A7047B1F1FF4FFBD330EE000A55
:104E20007047DFED077A0029BFEE000A08BFB0EE39
:104E3000670A7047FFFF7F00CAF249710000000057
:104E40000000008038B52DED028BB0EE418AF0EE07
:104E5000618A55EC104B00F089F930B9B0EE480A80
:104E6000F0EE680ABDEC028B38BDB0EE480AF0EEF9
:104E7000680A00F07BF938B153EC182B204629461C
:104E800003F072F80028E9D0BDEC028B45EC104B22
:104E900038BD00BF10EE103A194923F000428A4293
:104EA0001BD9B2F1FF4F02D330EE400A704700B574
:104EB00083B0684600F0C2FA00F003000128DDED7F
:104EC000010A9DED000A13D002280BD098B90120E9
:104ED00000F06CFA03B05DF804FBDFED0A0A002075
:104EE00000F064BA012000F061FAB1EE400AF1E787
:104EF000FFF7DCFEEEE7FFF7D9FEB1EE400AE9E787
:104F0000D80F493F0000000008B52DED028BB0EE30
:104F1000408A00F025F8B4EE488AF1EE10FAF0EE7F
:104F2000408A0AD6B0EE480AFFF772FAF7EE007A26
:104F3000B4EEE70AF1EE10FA04DCB0EE680ABDEC5C
:104F4000028B08BD02F0C2F9BDEC028B03462122A0
:104F50001A600248BDE80840FFF7A2BD9CA1060800
:104F600038B510EE105A25F00044B4F17E5F2DEDF7
:104F7000048BF0EE407A7FD077D8B4F17C5F0ED20C
:104F8000B4F1485F80F092809FED637A30EE077A4B
:104F9000F7EE006AB4EEE67AF1EE10FA62DCB0EEFB
:104FA000670AFFF735FAF7EE007A37EEC08AB6EEF9
:104FB000007A28EE078ADFED596A9FED597A9FED56
:104FC000596A9FED595ADFED595ADFED598AE8EEDB
:104FD000076A9FED587AA8EE067A9FED576AA6EE0B
:104FE000885AA7EE086A9FED557ADFED556AE5EE1F
:104FF000085AA6EE087AE5EE886AE7EE087AE6EE49
:10500000888AB0EE480AB0EE679A00F045FF4D4B33
:105010009C4268EE888A3AD810EE103A6FF30B0380
:1050200006EE903AA6EEE68A70EE267A88EE895A67
:10503000C8EE274A9FED447ADFED447AB0EE006A6D
:10504000A4EEC67A30EE000AF0EE675A90EE057ACA
:10505000E6EEC65A37EE657A37EEC70A002D01DC58
:10506000B1EE400ABDEC048B38BDBDEC048B70EE94
:10507000407A87EEA70A38BDBDEC048B9FED320A5B
:105080009FED337A27EE800AA7EE870A38BD88EEB7
:10509000896A9FED307ADFED2E7AA0EE060AF0EEF7
:1050A000006AA0EE267A37EEC70AD7E720EE007A2C
:1050B000DFED1B6A9FED196ADFED1B5A9FED195A50
:1050C000DFED1A4AA7EE266ABDEC048BE6EE075A1E
:1050D000DFED186A9FED186AE7EE056AE5EE874A8C
:1050E000A6EE876A9FED165ADFED145ADFED106ABF
:1050F000A4EE875AE6EE075AE5EE076AB7EE006AB5
:10510000A5EE876A26EE877AC7EE066AE0EE267A73
:10511000B0EE670A38BD00BFCAF24971047F4F3A4A
:1051200008EF11382EC69D3D461124BDA80A4E3EFB
:10513000ABAA2A3E613330BF2D57014039D119C087
:1051400090B0A6BE9999793F2EBD3BB3DB0F493F86
:10515000DB0FC93F2EBD3B3310EE103A23F0004069
:10516000B0F1FF4FACBF00200120704753EC102B73
:10517000002B10460BD0B3F1004F08D0104923F09C
:105180000042A2F5801C8C4506D8042070470028F8
:105190000CBF022003207047B3F5801F0DD303F12D
:1051A0000043B3F5801F08D3064B9A4201D000207C
:1051B0007047B0FA80F0400970470320704700BF85
:1051C000FFFFDF7F0000F07F10EE103A33F0004069
:1051D0000ED0A0F50003B3F1FE4F0DD3074B421ED6
:1051E0009A4207D9A0F1FF40B0FA80F04009704719
:1051F000022070470320704704207047FEFF7F00A5
:1052000008B52DED028BB0EE408A01F031FBB4EE13
:10521000488AF1EE10FA0FD6B5EEC08AF1EE10FA18
:105220000AD8B5EE408AF1EE10FA08D102F04EF835
:1052300022239FED090A0360BDEC028B08BD02F03A
:1052400045F8BDEC028B034621221A600348BDE8F5
:105250000840FFF725BC00BF000080FF9CA10608A6
:1052600010B582B0CDED010A019B23F00042B2F1EE
:10527000FF4FF0EE407A30D810EE100A20F00041D7
:10528000B1F1FF4F29D8B3F17E5F42D09C1704F0F3
:10529000020444EAD07431B37AB3B2F1FF4F40D084
:1052A000B1F1FF4F29D0891AB1F1F45F4FEAE15211
:1052B00034DA002B42DA3C3240DA9FED340A012C1A
:1052C0004ED0022C43D064B19FED317ADFED317ABC
:1052D00030EE070A30EE670A03E09DED017A37EE03
:1052E000270A02B010BD022C10D09FED2B7A032CA0
:1052F00008BFB0EE470A02B010BD9FED280ADFEDEF
:10530000287A0028A8BFB0EE670AEAE79FED210AD5
:10531000E7E702B0BDE81040FEF752BF9FED200A5C
:10532000CDE7B1F1FF4F04F1FF3420D0022C26D895
:105330001C4B03EB840393ED030AD2E79DED017A46
:1053400087EE870AFFF764F8FEF73AFFB7E79FEDAD
:10535000107ADFED107A30EE070A37EEC00AC0E7A8
:1053600010EE103A03F1004300EE103AB9E7022CB8
:1053700008D80C4B03EB840393ED000AB1E79FEDD3
:10538000030AAEE79FED080AABE700BF000000008C
:105390002EBDBB33DB0F4940DB0F49C0DB0FC9BF5C
:1053A000DB0FC93FE84C0408DB0F493F10EE103A11
:1053B00023F00043B3F1485F04D2FDEEC07A17EE4C
:1053C000903A5BB360EE007A9FED157ADFED155AE7
:1053D0009FED156ADFED156AE7EE875A9FED147AA7
:1053E000A5EEA76A20EE275AE6EE276AA6EEA77A70
:1053F00030B9DFED106AE7EE876AA6EE850A7047DE
:1054000027EE457AF6EE006AA0EEA67ADFED0A6A8C
:10541000D7EE270AE5EE260A30EE600A704700BF95
:10542000D3C92E2F342FD7B21BEF3836010D50B908
:105430008988083CABAA2ABEABAA2A3E70B510EEFA
:10544000103A884A23F00044944286B0054671D948
:10545000854A94421E4624D823F00042002BDFEDFB
:10546000837A834922F00F02B0EE407A40F3E08065
:105470008A4270EE677A09BF9FED7E7ADFED7E6A21
:10548000DFED7E6A77EEC77A37EEE67A77EEC77A97
:1054900080ED007A77EEE67AC0ED017A012006B061
:1054A00070BD774A944252D9B4F1FF4F48D2E21509
:1054B000863AA4EBC25307EE903ABDEEE77ADFEDF1
:1054C000716AB8EEC77A77EEC77A8DED037A67EE28
:1054D000A67ABDEEE77AB8EEC77A77EEC77A8DED99
:1054E000047A67EEA67AF5EE407AF1EE10FACDED89
:1054F000057A40F09880B5EE407AF1EE10FA0CBFD4
:1055000001230223604901910221009103A8294649
:1055100000F0A4F9002EC2DA95ED007AD5ED017AFB
:10552000B1EE477AF1EE677A85ED007AC5ED017A42
:105530004042B4E7002285ED000A42600020AEE759
:1055400070EE407AC0ED017AC0ED007AF6E7FEF722
:105550005FFF9FED4E7A9FED456AF6EE007AE0EE32
:10556000077A9FED457AFDEEE77A17EE900AF8EE9E
:10557000E76A1F28A6EEC60A66EE877AB1EE666A6B
:1055800020DC434A411E26F0004352F8212023F03C
:10559000FF03934216D030EE677A30EE470A002EB2
:1055A00030EE670A85ED007A85ED010ABFF677AF28
:1055B000B1EE477AB1EE400A85ED007A85ED010A39
:1055C00040426CE730EE677AE21517EE103AC3F30B
:1055D000C753C3EBD453082BDFDD9FED267A9FED35
:1055E000275AF0EE405AE6EE075A70EE657AE6EE7C
:1055F000077AD6EE857A35EEE77A17EE103AC3F3DE
:10560000C753D21A192A10DD9FED227A9FED225A34
:10561000B0EE650AA6EE070A75EEC07AE6EE077AE6
:10562000D6EE857AB7E703236CE7B0EE650AB4E7F8
:105630008A4270EE277A09BF9FED0E7ADFED0E6A7F
:10564000DFED0E6A77EE877A37EEA67A77EEC77AC5
:1056500080ED007A77EEA67AC0ED017A4FF0FF3048
:105660001DE700BFD80F493FE3CB1640800FC93F6D
:10567000D00FC93F004435374344353708A3852E42
:10568000800F494300008043804D040884F9223F85
:10569000004D040800A3852E32318D2408B510EE8C
:1056A000103A23F00042B2F1465FF0EE407A0FD29A
:1056B000BDEEC07A17EE101AF9B9431C134300F07F
:1056C0009F80012803D0BFEE007A87EE270A08BD2D
:1056D00050498A4211D39FED507ADFED506A002B7A
:1056E000BCBFF1EE600AF1EE407A77EE677A36EEF3
:1056F000E07ADFED4B0A77EE277A67EEA76ADFEDF7
:10570000494ADFED495A9FED495A9FED496A41499F
:1057100026EEA67A8A42E7EE245AA7EE056ADFED66
:10572000454A9FED455AE5EE874AA6EE075ADFED5A
:10573000435A9FED436AE4EE875AA5EE076ADFED10
:10574000414A9FED415AE5EE874AA6EE075A9FED82
:105750003F6ADFED3F5AA4EE876AE5EE075AB0EEE6
:10576000467AA5EEA67A27EEA65AB0EE606AA7EEB4
:10577000056ADFED384AE6EE260AE5EE240A37EE42
:10578000A00A1FD20128A2D0BFEE007AC7EE006A9D
:10579000314B10EE102A1A4006EE102A16EE902A0F
:1057A00076EE677A134000EE103AB7EE007A70EEAC
:1057B000E70AF0EE477AE6EE007AE0EE807AA7EEAE
:1057C000A60A08BD07EE100AB8EEC77A60EE006AB6
:1057D00030EE070A9B1786EE806A03F00203C3F1DE
:1057E0000103F0EE005A36EE606A06EE903A77EE6C
:1057F000C67AF8EEE66AA7EEE57A26EE870A08BDD5
:10580000FEF706FEB7EE007AF0EE407A87EE270A42
:1058100008BD00BF40A12C3FDA0F493F6821223369
:10582000000000005FAE9BB745F4A3388453D9371E
:105830007AC09538C8261A3AB937813916696B3B50
:1058400048DEBE3AA427B33C1F37113C8988083E86
:10585000D10D5D3DABAAAA3E00F0FFFF2DE9F04F50
:105860002DED048BDBB01C46944603930A46CD4BCA
:1058700068991CF1040F53F82160824604F1FF3847
:10588000C0F24982BCF1030348BF0CF10403DB10F2
:10589000029301334FEAC30EACEB0E030593029B58
:1058A00016EB0800A3EB080316D401309FEDBE7A77
:1058B000699C18441EA9002BA4BF54F8235007EE7E
:1058C000905A03F10103ACBFF8EEE77AF0EE477AA5
:1058D0008342E1EC017AEED1002EC0F2B182039B4B
:1058E0001EA901EB830446AD4FEA83094046F71831
:1058F0000AEB8301B8F1000FDFEDAB7A09DBA346B9
:105900005346F3EC016A3BED017A8B42E6EE877A6F
:10591000F7D10130B842E5EC017A04F10404E9D191
:105920000DF1280B0BEB8603CDE9062E043B9FED12
:10593000A09ADFED9E8A059804930AEB090446AF0E
:105940000BEB86090096CDF820C05AAB03EB86031B
:10595000002E13ED140A4FEA860515DD7B195A4611
:1059600060EE097AB0EE407AFDEEE77A73ED016AF7
:10597000F8EEE77ABB42A7EEE87A37EEA60ABDEE6C
:10598000C77AA2EC017AEBD1019000F0CBFDF4EEE6
:10599000007AB0EE408A20EE270AFFF709FAF2EE0D
:1059A000007AA0EE678A01980028FDEEC89AF8EE0A
:1059B000E97A38EE678A6CDD06F1FF3EC0F1080334
:1059C0005BF82E2042FA03FC0CFA03F3D21AC0F162
:1059D000070119EE903A4BF82E200A416344002A41
:1059E00009EE903A00F3F080B5EE408AF1EE10FA3D
:1059F00040F09D80009B9E420ADD5D44002355F8E7
:105A0000041D4D4543EA0103F9D1002B40F0F2801B
:105A1000009B013B5BF82330002B40F0E780049BA8
:105A2000012153F8042D0131002AFAD0731C3144AE
:105A30009C46029D039A05EB030E0EF1804E699D74
:105A400032440EF1FF3E07EB83061EAB05EB8E0ED4
:105A500003EB8205DEED017AF8EEE77AB8F1000F8C
:105A60000EF1040EE5EC017ADFED4F7A09DB2A46F0
:105A70005346F3EC016A32ED017AA342E6EE877AEF
:105A8000F7D10CF1010C6145E6EC017AE2DA0E4641
:105A90005BE740F08F80731E5BF82320D211002A51
:105AA000A2DD19EE903A002E03F1010309EE903ABF
:105AB00040F3D48159464FF0000E51F8043B002BBF
:105AC0006AD0C3F5807341F8043C04E00B68C3F16D
:105AD000FF0341F8043B0EF1010E7645F6DC01238D
:105AE0009E4600280ADD012878D0022806D1711EC2
:105AF0005BF8213003F03F0C4BF821C0022A7FF401
:105B000073AFB7EE000A734630EE488A002B3FF4BD
:105B10006BAF0992019000F005FD38EE408A0198C4
:105B2000099AB5EE408AF1EE10FA3FF463AF92465F
:105B3000DDE9062EDDF820C00196AEEB0C00B0EEDC
:105B4000480A009E009200F0EDFCDFED186AB4EE0A
:105B5000E60AF1EE10FADDE90023F0EE407AC0F239
:105B600050819FED137A059920EE077A0831BDEE3A
:105B7000C77A0591B8EEC77A5C1CE7EE667ABDEE8F
:105B8000C77AFDEEE77A17EE901A4BF8231017EE5E
:105B9000103A4BF8243046E00EF1010EB6458CDB8E
:105BA0009E469EE7985004080000000000008043D5
:105BB0000000803BF6EE007AB4EEE78AF1EE10FAD0
:105BC00080F2988000220FE70133002E09EE903A10
:105BD0003FF770AF002301289E4686D1711E5BF807
:105BE000213003F07F0C4BF821C087E7731C9C46E3
:105BF00019461EE733469246DDE905125C1EA1F107
:105C000008005BF82410009E059061B903F1804301
:105C1000013B0BEB8303014653F8040D013C0839AB
:105C20000028F9D0059105980092B7EE000A00F01F
:105C300079FC002C009AB0EE407AC0F20581601C1D
:105C400046AD5FED256A81000BEB800305EB80001C
:105C500073ED017AF8EEE77A5B4567EE877A27EE17
:105C6000267A60ED017AF3D10DF1C8080B1F46A822
:105C7000C718C646A44600259146002E73DB844A09
:105C8000DFED847A3846002301E0AB4208DCF2EC19
:105C9000016AB0EC017A01339E42E6EE877AF4DACB
:105CA0000CF1FF3CBCF1FF3FEEEC017A05F1010580
:105CB000A7F10407E1D1689B022B4A4656DC002B72
:105CC0002EDC0ED1DFED737A414431ED017A41458E
:105CD00077EE877AF9D15346002B40F0AE80C2EDC3
:105CE000007A19EE903A03F007005BB0BDEC048B2C
:105CF000BDE8F08F19EE903A002E03F1010309EE92
:105D0000903AC8BF02223FF7D5AEF7EE007A37EEE1
:105D1000C88A022268E600234FF0080E0293BBE512
:105D20009FED5C7A414471ED017A414537EE277A67
:105D3000F9D1DDED327A534677EEC77A002B75D173
:105D400082ED007A64B133A90123B1EC017A013309
:105D50009C4277EE877AF8DA53460BB1F1EE677A18
:105D6000C2ED017ABDE7DFED4B7A99E7689B032B23
:105D7000B7D1002C7ED008EB840595ED007AA00009
:105D80002B46294671ED017AF0EE476A37EE277A05
:105D9000414577EEC77A81ED007A77EEA67AC1EDBC
:105DA000017AEFD1012C65D095ED007A08F104015C
:105DB00073ED017AF0EE476A37EE277A994277EE73
:105DC000C77A83ED007A77EEA67AC3ED017AEFD138
:105DD000031DDFED307A434408F1080833ED017A02
:105DE000984577EE877AF9D15346DDED326A9DED1D
:105DF000337A73B9C2ED006A82ED017AC2ED027A9C
:105E00006FE7FDEEC07A1C4617EE901A4BF8231090
:105E100009E7F1EE666AB1EE477AF1EE677AC2ED14
:105E2000006A82ED017AC2ED027A5AE7B1EE477A52
:105E300082ED007A002C86D190E7F1EE677A4EE78A
:105E4000039B4FEA83096BE5689B022B0EDC002B5A
:105E500013DC7FF446AFDFED0F7A3CE7022A7FF4D4
:105E6000C3ADF7EE007A37EEC88ABDE5689B032B19
:105E70007FF437AFDFED077AB6E75346DDED327AD0
:105E800013B9002313606BE74FF00043136065E71D
:105E9000A450040800000000B1EEC00A704700BF23
:105EA0002DE9F0432DED028B83B0CDED010A8DED90
:105EB000000ADDE9004535F0004610D184F4800485
:105EC000640014F5000F1BD9DDED007A9DED017A19
:105ED00037EE870A03B0BDEC028BBDE8F08324F0F7
:105EE0000047B7F1FF4F02D8B6F1FF4F0FD9B4F119
:105EF0007E5FE9D185F480056D0015F5000FE3D8CC
:105F0000B7EE000A03B0BDEC028BBDE8F083002CB5
:105F1000B84616DBB6F1FF4F00F0F780B6F17E5FB2
:105F200000F02681B5F1804F00F04681B5F17C5F2D
:105F300040F0388103B0BDEC028BBDE8F043FFF7C1
:105F4000ABBFB6F1974F80F0F080B6F17E5F80F086
:105F50001981B5F1804F00F02F81B5F17C5F40F0E1
:105F60002181FEF755FAB7F1FF4FB3D04FF000098A
:105F7000002F00F0F280B7F17E5F00F0E580E20FC5
:105F8000013A59EA020300F02181B6F19A4F40F23A
:105F90004581924B9F4240F23E82914B9F4200F2DC
:105FA0004782F7EE007A30EE670A9FED8E6ADFEDEA
:105FB0008E5AF5EE007AA0EE676AF6EE006AE6EE1B
:105FC000406A20EE007ADFED897A9FED896A27EE3C
:105FD000267A67EEC77AE0EE257AF0EE676AE0EEA1
:105FE000066A16EE903A6FF30B0306EE903AB0EEA7
:105FF000667AA0EE467A77EEC77A6FF30B0507EE66
:10600000105A9DED016ADDED015A36EE476A67EEE2
:10601000A57A26EE877AE6EE267A09F1FF3959EA63
:106020000209BFEE008A77EE876AB7EE006A16EEC5
:10603000903A18BFB0EE468A002B23F0004240F39E
:10604000B981B2F1864F00F2388200F01C82B2F1C1
:106050007C5F00F20082002210466FF30B0305EE16
:10606000903A75EEC76A9FED637A9FED633A9FEDB4
:10607000632ADFED633A9FED634ADFED634A9FEDEC
:10608000635A77EEE67A25EE877ADFED616AA7EE4E
:10609000A67AF0EE002AF0EE476AE5EE836AB7EEE4
:1060A000000A26EEA66AF0EE667AE6EE023AE5EE21
:1060B000C37AF0EE445AE3EE865A77EE677AB0EE92
:1060C000647AA5EE867AF0EE455AE7EE065AB0EE0F
:1060D000667AA5EEC67AE6EEA77A66EE875A37EEBE
:1060E000626A85EE867A77EE677A77EEE67A30EE48
:1060F000670A10EE103A1344B3F5000FC0F2958111
:1061000000EE103A20EE080AE4E6B7F17E5F3FF4B5
:10611000F7AE32D99FED3F0ADDED017A002DB8BF11
:10612000F0EE407AB0EE670AD4E6B6F1FF4FECD05D
:106130004FF002099DED000AFEF76AF9B7F1FF4F33
:1061400002D0002F7FF417AF002DBCBFF7EE007A0E
:1061500087EE800A002CBFF6BDAEA7F17E5757EA46
:10616000090740F0208170EE407A87EEA70AB1E679
:10617000002D1ADB9DED000AACE6002D21DB9FED22
:10618000250AA7E6F315C3F1960346FA03F202FACD
:1061900003F3B34200F0FA80B6F17E5FE8D0B5F1C8
:1061A000804F09D04FF00009C4E79DED007AF7EE6B
:1061B000007A87EE870A8DE6DDED007A27EEA70AE2
:1061C00088E6DDED017AB1EE670A83E6DDED007A5F
:1061D00077EEE77A87EEA70A7CE600BFF3FF7F3F02
:1061E0000700803FABAAAA3E70A5EC363BAAB83F99
:1061F00000AAB83F8CBEBF350072313F4CBB313373
:106200000EEADDB555B38A38610B36BBABAA2A3E20
:106210001872313F000000000000804B14F0FF4F67
:1062200040F0F7805FED047A60EE277A6FF0170395
:1062300017EE908AA9484FEAE851C8F316087F394B
:106240008045194448F07E5340F3DB80A4488045E4
:1062500040F3F8809FEDA35A0131F0EE453AA3F5E3
:106260000003F7EE005A002006EE103A76EE257A8B
:10627000B7EE007A87EE270A5B1043F0005303F570
:106280008023034476EE656A07EE901A26EE803A84
:10629000B8EEE77A13EE101A07EE903A924BDFED64
:1062A000930A9FED938A9FED931ADFED932ADFED1A
:1062B000931A9FED932A77EEE55A194004EE901A4F
:1062C00036EE656A63EE035AE4EEE76AF0EE607A52
:1062D000E5EE887AE4EEC66AA7EEA51A66EE806A55
:1062E000E1EE252A73EE247AE2EEA51A25EEA58AC0
:1062F000A1EEA52A67EEA67AB0EE084AB0EE446A8F
:10630000E8EE027AA4EEA46ADFED7E0A9FED7E1A23
:10631000DFED7E2A36EE276A16EE101A194006EED9
:10632000101A76EE445AE4EEE45A77EEE57A67EE18
:10633000837AE6EE867AF0EE675AE4EE865A15EE38
:10634000901A194005EE901AF0EE656AE4EEC66AFE
:1063500077EEE67A67EEA07AE5EE817A77EEA37AB9
:10636000F0EE676AE5EEA26A76EE856A76EE876AF7
:1063700016EE901A194006EE901A36EEC77A37EEEE
:10638000457AA5EEE27A77EEC77A36E6B6F17E5F19
:106390003FF4EEAEB5F1804F3FF40EAF02F00102D4
:1063A000C2F10209C6E6B9F1010F7FF493ADB1EE77
:1063B000400A8FE556498A4200F287807FF447AE53
:1063C00076EEC76AF4EEE76AF1EE10FA7DDA03F5CD
:1063D0000043504AC3F3C7517F39C3F316000A4143
:1063E00040F40000C1F117011A400841404206EE96
:1063F000902A37EE667AC20577EE876A16EE903AF3
:106400002BE69FED385AF7EE005AF0EE453A0020A1
:106410002AE700230EE7002D0CDB002003B0BDECC3
:10642000028BBDE8F04300F0F9B900F07BF869E6B3
:10643000002DF2DD002003B0BDEC028BBDE8F0437F
:1064400000F0F2B99FED345ADFED343AF7EE085A16
:106450004FF4001008E7D2157E3A4FF400011141C5
:1064600019442C4AC1F3C7547F3CC1F316002241A2
:1064700040F40000C4F11704002B40FA04F002EAD3
:106480000102B4DAB2E79FED266A76EEC76A37EE0C
:10649000866AB4EEE66AF1EE10FA0EDC03F500430C
:1064A0001C4AD9157F39C3F316000A4140F4000095
:1064B000C1F117011A40084199E7B5EEC08AF1EE23
:1064C00010FA4CBF01200020B5E7B5EEC08AF1EE0E
:1064D00010FA4CBF01200020A0E700BF71C41C00CF
:1064E000D6B35D000000000000F0FFFF55326C3EA7
:1064F00042F1533E05A38B3EABAAAA3EB76DDB3EED
:106500009A99193F4F38763FA0C39D360038763FA1
:1065100000001643000080FF00C0153FDCCFD135DE
:106520003CAA383310EE103A33F000411A4627D017
:10653000B1F1FF4F21D213F0FF4F22D1DFED2B7AC3
:106540002B4A60EE277A904217EE903A33DB4CF2FA
:10655000503CC3F3C75160451A46A1F1190116DD3D
:10656000DFED247ADFED246A002BB0EE677AB8BF46
:10657000F0EE667A27EE870A704730EE000A704721
:1065800070474CF2503C60454FEAD151E8DC014481
:10659000FE29E5DC002915DC11F1160F19DB193194
:1065A00022F0FF4242EAC15207EE902A9FED130A01
:1065B00027EE800A7047DFED127A07EE103A27EED9
:1065C000270A704722F0FF4242EAC15300EE103A18
:1065D0007047DFED0B7ADFED0B6A002BB0EE677AC8
:1065E000B8BFF0EE667A27EE870A70470000004CCD
:1065F000B03CFFFFCAF24971CAF249F10000003312
:106600006042A20D6042A28D10EE103A23F00042CB
:10661000B2F1FF4F53D84FEAD37100F09280614836
:10662000834200F38480002BC0F284805E4B9A4248
:1066300048D95E4B9A4200F297805D4A02EB810294
:10664000D2ED004AD2ED027A81F0010370EE644A85
:106650005B1A34EEE70ADFED576A9FED575ADFED1C
:10666000575A9FED576A20EE007AA7EE265ADFEDC3
:10667000556AE5EE075AE5EE876AA6EE876AF0EE00
:10668000406AE6EE476A20EE266A002B42D0B0EE62
:10669000007A37EE667AB7EE000AC6EE076A13F1A3
:1066A0007D0F77EEE67A77EEE47A30EE670A4FDB1D
:1066B00010EE102A02EBC35300EE103A704730EE92
:1066C000000A7047B2F1505F0AD2DFED3F7A70EEF8
:1066D000277AB7EE007AF4EEC77AF1EE10FA5DDCB5
:1066E00060EE007A9FED337ADFED335A9FED336A27
:1066F000DFED346AE7EE875A9FED317AA7EEA56A9F
:10670000E7EE866AA7EEA67AF0EE406AE7EEC76A81
:1067100020EE266AF0EE007A76EEE76AB7EE007AAF
:10672000C6EE267A77EEC07A37EE670A7047002009
:1067300000F07AB8254B9A427FF678AF002000F03F
:106740006DB8DFED237A002918BFB0EE670A7047F5
:1067500010EE102A643302EBC353DFED1E7A00EE15
:10676000103A20EE270A7047114B9FED1B7ADFEDA0
:106770001B6A03EB8103D3ED047AE0EE077A9FED09
:10678000187AFDEEE77AF0EE404A17EE903AF8EE0E
:10679000E77AE7EEE64A67EE877A5AE730EE070ACD
:1067A000704700BF1772B1421872B13E9115853F14
:1067B000D05004084CBB31330EEADDB555B38A38EE
:1067C000ABAA2A3E610B36BBCAF24971B5F1CF4282
:1067D000000000000000800D3BAAB83F8071313FEF
:1067E000D1F7173710B52DED028BB0EE408A044675
:1067F00000F06CFDB0EE480ABDEC028B046010BDE9
:1068000028B1F1EE407A27EE800A2220EAE7F0EE86
:10681000407A27EE800A2220E4E700BF9FED010ABC
:10682000EEE700BF000000109FED010AE8E700BF9F
:106830000000007000289FED060AF7EE007ABFEE18
:10684000007A18BFF0EE477A87EE800A2220C9E767
:1068500000000000F0EE407A30EE407AF4EE677A05
:10686000F1EE10FA87EE070A01D62120BAE7704749
:1068700008B510EE103A33F000422DED028B2CD00B
:10688000002B1A4632DBB3F1FF4F41DAB3F5000FAC
:1068900035DB0021D3157F3B0B44D90FC1F17F01BC
:1068A00003EBD373C2F3160207EE903A42EAC152E9
:1068B00000EE102AB8EEE78A00F03CF8DFED177A18
:1068C0009FED177A20EE270ADFED167AA8EE070A69
:1068D000A8EE270ABDEC028B08BDBDEC028B9FED34
:1068E000127ADFED127A87EE270A08BDBDEC028B23
:1068F00070EE407A9FED0D7A87EE870A08BDDFEDD6
:106900000C7A60EE277A6FF0180117EE902AC1E733
:10691000BDEC028B30EE000A08BD00BFD95BDE3E45
:10692000DB27543580209A3E000000CC0000000098
:106930000000004C10EE102A32F000432FD0002A45
:10694000134633DBB2F1FF4F40DAB2F5000F34DB10
:106950004FF0000C6448C3F31601084400F4000231
:1069600082F07E520A43DB1500EE102A7F3B5F4A1D
:10697000634401F10F0CF7EE007A0CEA020230EEEC
:10698000670A03EBD05322BBB5EE400AF1EE10FAD2
:1069900062D1002B40F090809FED550A70479FED2B
:1069A000557ADFED537A87EE270A704770EE407A0A
:1069B0009FED4F7A87EE870A7047DFED4F7A60EEE2
:1069C000277A6FF0180C17EE903AC3E730EE000A02
:1069D0007047F0EE007A70EE277A07EE103A80EEFC
:1069E000274A4648C1F55712084402F5227202436D
:1069F000002A9FED433ADFED434ADFED435ADFEDD6
:106A0000433A9FED435ADFED437ADFED436A24EECC
:106A1000046AF8EEC72A26EE067AE7EE034AA7EEE6
:106A2000235AE4EE875AE5EE076AE5EE877A67EEC9
:106A3000867AE6EE877A2ADDB6EE007A20EE077ACD
:106A400027EE007A77EE877A67EE847A3BBB37EEE3
:106A5000677A30EE470A70479FED307AF6EE007A9B
:106A6000E0EE477A20EE007A27EE277A002BF0D06E
:106A700007EE903A9FED2A6ADFED2A6AF8EEE77A90
:106A8000A7EEC67A37EE400A97EEA60A704770EE78
:106A9000677A67EE847AE3B930EE670A70479FED54
:106AA000206ADFED206AE2EE867A37EE677A37EE0B
:106AB000400A92EEA60A704707EE903A9FED180A38
:106AC0009FED187AF8EEE77A27EE800AA7EE870A9C
:106AD0007047DFED136A9FED137AE2EEE67A37EE48
:106AE000C00A92EE870A704720FB4A00F0FF7F0041
:106AF00000000000000000CC0000004C305CCFFF24
:106B00009788173E25333A3E2549923E4FD01C3E8A
:106B1000298E633EABAA2A3FCDCCCC3EABAAAA3E7F
:106B2000D1F717378071313F40EA01039B0710B559
:106B300001D1032A17D8844601F1FF3E07E01EF871
:106B4000011F03F8011B541E29B19C4622466346CF
:106B5000002AF4D110BD9444002CFBD003F8011B93
:106B60006345FBD110BD8E468446DEF80040A4F19B
:106B7000013323EA040313F0803F71460EF1040E43
:106B8000DAD1043A032A4CF8044BEED87146D3E725
:106B9000024B1B680022C3E9260270470000002058
:106BA0000C4B0D4819680D4AD1F8983010B4D1F843
:106BB0009C4003FB00F002FB0400A3FB0232013304
:106BC00040EB0200C1E926305DF8044B20F00040A4
:106BD000704700BF000000202DF451582D7F954CC8
:106BE00000000000000000000000000000000000A5
:106BF0000000000000000000000000000000000095
:106C000030B490F800F020F007016FF0000C10F0A5
:106C1000070491F820F040F048804FF000046FF036
:106C20000700D1E9002391F840F000F1080082FA52
:106C30004CF2A4FA8CF283FA4CF3A2FA8CF34BBB1D
:106C4000D1E9022382FA4CF200F10800A4FA8CF296
:106C500083FA4CF3A2FA8CF3E3B9D1E9042382FA64
:106C60004CF200F10800A4FA8CF283FA4CF3A2FA79
:106C70008CF37BB9D1E9062301F1200182FA4CF2B1
:106C800000F10800A4FA8CF283FA4CF3A2FA8CF318
:106C9000002BC6D0002A04BF04301A4612BAB2FA3A
:106CA00082F200EBD20030BC7047D1E9002304F03F
:106CB0000305C4F100004FEAC50514F0040F91F874
:106CC00040F00CFA05F562EA05021CBF63EA050311
:106CD00062464FF00004AAE7830730B547D0541E40
:106CE000002A3ED0CAB2034601E0013C39D303F882
:106CF000012B9D07F9D1032C2CD9CDB205EB05252D
:106D00000F2C05EB054535D9A4F1100222F00F0C2C
:106D100003F1100EE6444FEA121C1A46C2E9005570
:106D2000C2E9025510327245F8D10CF1010214F09B
:106D30000C0F03EB021204F00F0C13D0ACF10403A0
:106D400023F003030433134442F8045B9342FBD162
:106D50000CF003042CB1C9B21C4403F8011BA3427C
:106D6000FBD130BD64461346002CF4D1F9E703464D
:106D70001446C0E71A46A446E0E700BF11F0FF0141
:106D8000034600F0030239D08ABB026810B501EB5C
:106D9000012E0EEB0E4E8EEA0204A2F1013323EA1D
:106DA0000203A4F1013222EA0402134313F0803FEC
:106DB0000FD150F8044F84EA0E0CA4F10133ACF16A
:106DC000013223EA040322EA0C02134313F0803F4A
:106DD000EFD0037823B936E010F8013F002B32D012
:106DE0009942F9D110BD8A4228D09A0729D01A7841
:106DF00018460133002AF6D110467047CAB9026816
:106E0000A2F1013323EA020313F0803F08D150F8C6
:106E1000042FA2F1013323EA020313F0803FF6D0DE
:106E200003785BB110F8013F002BFBD17047990745
:106E300005D0184613F8012B002AF8D170471846E0
:106E4000DDE71846A1E7184610BD00BF00000000AE
:106E50000000000000000000000000000000000032
:106E600002780B78012A28BF9A4240F0D8806DE959
:106E7000044540EA0104CDE902676FF0000C4FEAD7
:106E800044721AB380EA010414F0070F6BD100F0CA
:106E9000070420F0070004F0030521F007014FEA82
:106EA000C505F0E8042314F0040FF1E804670CFAB8
:106EB00005F462EA040266EA04060BD063EA0403FE
:106EC000624667EA0407664604E000BFF0E8042370
:106ED000F1E8046782FA4CF582EA0604A4FA8CF41D
:106EE0006CBB83FA4CF583EA0705A5FA8CF595B9D6
:106EF00050E9022351E9026782FA4CF582EA06045E
:106F0000A4FA8CF483FA4CF583EA0705A5FA8CF50C
:106F10002543DBD09CB92DBAB5FA85F424F00704DB
:106F200027FA04F1DDE9026723FA04F303F0FF0016
:106F300001F0FF01FDE80445A0EB0100704724BA11
:106F4000B4FA84F424F0070426FA04F1DDE90267B8
:106F500022FA04F202F0FF0001F0FF01FDE804450F
:106F6000A0EB0100704714F0030F3CD110F00304B4
:106F700028D150F8082B51F8083B82FA4CF582EAE8
:106F80000305A5FA8CF55DB950F8042C51F8043CC2
:106F900082FA4CF582EA0305A5FA8CF5002DE8D0BB
:106FA0002DBAB5FA85F424F0070423FA04F122FA85
:106FB00004F202F0FF0001F0FF01FDE80445A0EB40
:106FC000010070474FEAC40420F0030050F8082B7A
:106FD00021F0030151F8083B0CFA04F462EA0402C0
:106FE00063EA0403C9E710F003041DD0A1EB040118
:106FF00020F00300E40750F8042B06D012D28B785F
:107000005FFAA2F4E41A06D12BB1CB785FFAB2F49E
:10701000E41A00D133B920465DF8104B7047A2EB5B
:107020000300704701F1040150F8042BCC0721F054
:10703000030151F8043B48D824D222F07F4482FA5D
:107040004CF594EA1325A5FA8CF50AD165B951F8E7
:10705000043B84EA0204B4EB036F0ED150F8042B16
:10706000EBE74FEA132355E035F07F454DD1087823
:10707000FDE80445C0F1000070474FEA126203F0DA
:10708000FF0347E002EA1C4482FA4CF594EA1345F8
:10709000A5FA8CF50AD165B951F8043B84EA0204DB
:1070A000B4EB034F0CD150F8042BEBE74FEA13433A
:1070B00030E015EA1C4528D10B884FEA124229E03E
:1070C0004FEA124203EA1C4324E002F0FF0482FA72
:1070D0004CF594EA1365A5FA8CF50AD165B951F817
:1070E000043B84EA0204B4EB032F09D150F8042BCB
:1070F000EBE74FEA13630DE015F0FF0F05D10B68C6
:107100004FEA122223F07F4304E04FF00000FDE835
:107110000445704712BA1BBA82FA4CF482EA03049F
:10712000A4FA8CF5B5FA85F402FA04F203FA04F332
:107130004FEA1260FDE80445A0EB1360704700BF02
:10714000002A3ED030B584460446084380070B46EB
:107150002ED1032A07D82BE0043A25D01EF0803F19
:1071600022D1032A22D92068194653F8045BA0F1E2
:10717000013EA842A4462EEA000E04F10404EBD01E
:107180009CF800000C7884421DD1E64668B11EF8D8
:10719000010F11F8014FA2EB0E03A04203F1FF33E0
:1071A00011D11CEB0303F1D1002030BDA4461946D8
:1071B0009CF800000C78A04205D1012AF4D0E646E4
:1071C000E4E710467047001B30BD00BF88420ED96F
:1071D0008B1883420BD900EB020C002A6ED062465A
:1071E00013F801CD02F801CD9942F9D170470F2A69
:1071F0000FD8034602F1FF3C002A5FD00CF1010CCE
:10720000013B8C4411F8012B03F8012F6145F9D1A2
:10721000704740EA01039B0751D1A2F1100370B5FA
:1072200001F1200C23F00F0501F1100E00F1100404
:10723000AC441B095EF8105C44F8105C5EF80C5C12
:1072400044F80C5C5EF8085C44F8085C5EF8045C8A
:1072500044F8045C0EF1100EE64504F11004E9D187
:10726000013312F00C0F01EB031102F00F0400EBDD
:10727000031328D0043C24F003064FEA940C1E4468
:107280001C1F8E465EF8045B44F8045FB442F9D1DB
:107290000CF1010402F0030203EB840301EB84010F
:1072A00002F1FF3C4AB10CF1010C013B8C4411F896
:1072B000012B03F8012F6145F9D170BD704702F130
:1072C000FF3C03469AE72246EAE700BF014B1868F5
:1072D000704700BF00000020830710B5044610D19E
:1072E0000268A2F1013323EA020313F0803F08D1C0
:1072F00050F8042FA2F1013323EA020313F0803F78
:10730000F6D003781BB110F8013F002BFBD100F041
:1073100081F9204610BD00BF032A30B415D941EAD7
:107320000004A40784460B4604D0541E0FE0043A20
:10733000032A08D91946604653F8044B5CF8045BED
:10734000A542F4D0F1E760461946541E7AB1431EB7
:107350000139021901E09A4209D013F8010F11F81E
:1073600001CF6045F7D0A0EB0C0030BC7047002087
:1073700030BC7047242B2DE9F84F43D8012B41D066
:10738000804649481F468E4675461EF801BB10F8D8
:107390000B4014F00804F7D1BBF12D0F6FD0BBF1F7
:1073A0002B0F08BF9EF800B06FF0004908BF05F131
:1073B000020E73BBBBF1300F4BD00A273B460025B2
:1073C000B9FBF7F6284607FB169A05E03AD007FB0B
:1073D00000C001251EF801BBABF1300CBCF1090F58
:1073E00006D9ABF1410CBCF1190F19D8ABF1370C30
:1073F00063451EDDB5F1FF3FECD08642E6D24FF08B
:10740000FF35E7E7FFF762FF162303600020BDE8C2
:10741000F88F102BD3D1BBF1300F23D01F46CEE70E
:10742000ABF1610CBCF1190F03D8ABF1570C6345FC
:10743000E0DC6B1C2BD054B9002AE8D085BB11606E
:10744000BDE8F88FE245C2DA4FF0FF35C2E74042AF
:10745000F2E79EF8003003F0DF03582B08D008272E
:107460003B46ACE79EF8000000F0DF005828D5D17D
:1074700010279EF801B03B460EF1020E9FE79EF8E2
:1074800000B04FF0004905F1020E012491E72223DC
:10749000C8F8003032B10EF1FF3148461160CFE735
:1074A0008146F8E74846B2E7E950040862E700BFC2
:1074B00010B4044C8446134620685DF8044B0A4619
:1074C000614657E70000002010B4044C8446134680
:1074D00020685DF8044B0A4661464BE70000002037
:1074E000844641EA000313F003036DD1403A41D3CF
:1074F00051F8043B40F8043B51F8043B40F8043B8E
:1075000051F8043B40F8043B51F8043B40F8043B7D
:1075100051F8043B40F8043B51F8043B40F8043B6D
:1075200051F8043B40F8043B51F8043B40F8043B5D
:1075300051F8043B40F8043B51F8043B40F8043B4D
:1075400051F8043B40F8043B51F8043B40F8043B3D
:1075500051F8043B40F8043B51F8043B40F8043B2D
:1075600051F8043B40F8043B51F8043B40F8043B1D
:10757000403ABDD2303211D351F8043B40F8043BBD
:1075800051F8043B40F8043B51F8043B40F8043BFD
:1075900051F8043B40F8043B103AEDD20C3205D3CD
:1075A00051F8043B40F8043B043AF9D2043208D0C5
:1075B000D2071CBF11F8013B00F8013B01D30B8837
:1075C00003806046704700BF082A13D38B078DD015
:1075D00010F003038AD0C3F10403D21ADB071CBFE7
:1075E00011F8013B00F8013B80D331F8023B20F851
:1075F000023B7BE7043AD9D3013A11F8013B00F88A
:10760000013BF9D20B7803704B7843708B78837011
:107610006046704780EA0102844612F0030F4FD1A2
:1076200011F0030F32D14DF8044D11F0040F51F851
:10763000043B0BD0A3F101329A4312F0803F04BF08
:107640004CF8043B51F8043B16D100BF51F8044BF1
:10765000A3F101329A4312F0803FA4F101320BD121
:107660004CF8043BA24312F0803F04BF51F8043BA6
:107670004CF8044BEAD023460CF8013B13F0FF0F03
:107680004FEA3323F8D15DF8044B704711F0010F36
:1076900006D011F8012B0CF8012B002A08BF704707
:1076A00011F0020FBFD031F8022B12F0FF0F16BFFE
:1076B0002CF8022B8CF8002012F47F4FB3D17047C6
:1076C00011F8012B0CF8012B002AF9D1704700BFEB
:1076D00081F0004102E000BF83F0004330B54FEA83
:1076E00041044FEA430594EA050F08BF90EA020FF0
:1076F0001FBF54EA000C55EA020C7FEA645C7FEA83
:10770000655C00F0E2804FEA5454D4EB5555B8BFA5
:107710006D420CDD2C4480EA020281EA030382EA16
:10772000000083EA010180EA020281EA0303362DA8
:1077300088BF30BD11F0004F4FEA01314FF4801C7B
:107740004CEA113102D0404261EB410113F0004F8D
:107750004FEA03334CEA133302D0524263EB430344
:1077600094EA050F00F0A780A4F10104D5F1200EE2
:107770000DDB02FA0EFC22FA05F2801841F100013D
:1077800003FA0EF2801843FA05F359410EE0A5F111
:1077900020050EF1200E012A03FA0EFC28BF4CF042
:1077A000020C43FA05F3C01851EBE37101F00045F8
:1077B00007D54FF0000EDCF1000C7EEB00006EEB05
:1077C0000101B1F5801F1BD3B1F5001F0CD349088F
:1077D0005FEA30004FEA3C0C04F101044FEA4452E6
:1077E00012F5800F80F09A80BCF1004F08BF5FEA6D
:1077F000500C50F1000041EB045141EA050130BD4D
:107800005FEA4C0C404141EB0101013C28BFB1F55E
:10781000801FE9D291F0000F04BF01460020B1FAA9
:1078200081F308BF2033A3F10B03B3F120020CDA7C
:107830000C3208DD02F1140CC2F10C0201FA0CF05A
:1078400021FA02F10CE002F11402D8BFC2F1200CBF
:1078500001FA02F120FA0CFCDCBF41EA0C01904075
:10786000E41AA2BF01EB0451294330BD6FEA0404BE
:107870001F3C1CDA0C340EDC04F11404C4F12002A9
:1078800020FA04F001FA02F340EA030021FA04F3BB
:1078900045EA030130BDC4F10C04C4F1200220FA12
:1078A00002F001FA04F340EA0300294630BD21FA50
:1078B00004F0294630BD94F0000F83F4801306BF16
:1078C00081F480110134013D4EE77FEA645C18BF0A
:1078D0007FEA655C29D094EA050F08BF90EA020FA1
:1078E00005D054EA000C04BF1946104630BD91EA99
:1078F000030F1EBF0021002030BD5FEA545C05D19C
:107900004000494128BF41F0004130BD14F58004DA
:107910003CBF01F5801130BD01F0004545F0FE414E
:1079200041F470014FF0000030BD7FEA645C1ABF83
:10793000194610467FEA655C1CBF0B46024650EABA
:10794000013406BF52EA033591EA030F41F40021E6
:1079500030BD00BF90F0000F04BF0021704730B56C
:107960004FF4806404F132044FF000054FF0000141
:1079700050E700BF90F0000F04BF0021704730B502
:107980004FF4806404F1320410F0004548BF4042D7
:107990004FF000013EE700BF42004FEAE2014FEA2C
:1079A00031014FEA02701FBF12F07F4393F07F4F07
:1079B00081F06051704732F07F4208BF704793F00A
:1079C0007F4F04BF41F40021704730B54FF460741D
:1079D00001F0004521F000411CE700BF50EA010220
:1079E00008BF704730B54FF000050AE050EA0102C9
:1079F00008BF704730B511F0004502D5404261EB39
:107A000041014FF4806404F132045FEA915C3FF479
:107A1000D8AE4FF003025FEADC0C18BF03325FEA16
:107A2000DC0C18BF033202EBDC02C2F1200300FAC7
:107A300003FC20FA02F001FA03FE40EA0E0021FAEC
:107A400002F11444BDE600BF70B54FF0FF0C4CF4DA
:107A5000E06C1CEA11541DBF1CEA135594EA0C0F8C
:107A600095EA0C0F00F0DEF82C4481EA030621EAC7
:107A70004C5123EA4C5350EA013518BF52EA033502
:107A800041F4801143F4801338D0A0FB02CE4FF0B4
:107A90000005E1FB02E506F00042E0FB03E54FF0E4
:107AA0000006E1FB03569CF0000F18BF4EF0010EDC
:107AB000A4F1FF04B6F5007F64F5407404D25FEAD8
:107AC0004E0E6D4146EB060642EAC62141EA55518B
:107AD0004FEAC52040EA5E504FEACE2EB4F1FD0CCD
:107AE00088BFBCF5E06F1ED8BEF1004F08BF5FEA4B
:107AF000500E50F1000041EB045170BD06F00046FD
:107B000046EA010140EA020081EA0301B4EB5C04A9
:107B1000C2BFD4EB0C0541EA045170BD41F48011A1
:107B20004FF0000E013C00F3AB8014F1360FDEBFC6
:107B3000002001F0004170BDC4F10004203C35DAA2
:107B40000C341BDC04F11404C4F1200500FA05F325
:107B500020FA04F001FA05F240EA020001F00042C6
:107B600021F0004110EBD37021FA04F642EB06013C
:107B70005EEA430E08BF20EAD37070BDC4F10C0466
:107B8000C4F1200500FA04F320FA05F001FA04F22A
:107B900040EA020001F0004110EBD37041F1000116
:107BA0005EEA430E08BF20EAD37070BDC4F1200521
:107BB00000FA05F24EEA020E20FA04F301FA05F289
:107BC00043EA020321FA04F001F0004121FA04F231
:107BD00020EA020000EBD3705EEA430E08BF20EA01
:107BE000D37070BD94F0000F0FD101F0004640003B
:107BF00041EB010111F4801F08BF013CF7D041EABD
:107C0000060195F0000F18BF704703F000465200C0
:107C100043EB030313F4801F08BF013DF7D043EA91
:107C20000603704794EA0C0F0CEA135518BF95EA47
:107C30000C0F0CD050EA410618BF52EA4306D1D1CE
:107C400081EA030101F000414FF0000070BD50EAED
:107C5000410606BF1046194652EA430619D094EA77
:107C60000C0F02D150EA013613D195EA0C0F05D161
:107C700052EA03361CBF104619460AD181EA0301B5
:107C800001F0004141F0FE4141F470014FF000006D
:107C900070BD41F0FE4141F4780170BD70B54FF008
:107CA000FF0C4CF4E06C1CEA11541DBF1CEA135588
:107CB00094EA0C0F95EA0C0F00F0A7F8A4EB05046A
:107CC00081EA030E52EA03354FEA013100F0888061
:107CD0004FEA03334FF0805545EA131343EA12632A
:107CE0004FEA022245EA111545EA10654FEA0026DF
:107CF0000EF000419D4208BF964244F1FD0404F598
:107D0000407402D25B084FEA3202B61A65EB0305F3
:107D10005B084FEA32024FF480104FF4002CB6EBB0
:107D2000020E75EB030E22BFB61A754640EA0C0030
:107D30005B084FEA3202B6EB020E75EB030E22BF70
:107D4000B61A754640EA5C005B084FEA3202B6EBB1
:107D5000020E75EB030E22BFB61A754640EA9C0070
:107D60005B084FEA3202B6EB020E75EB030E22BF40
:107D7000B61A754640EADC0055EA060E18D04FEAFE
:107D8000051545EA16754FEA06164FEAC30343EA9E
:107D900052734FEAC2025FEA1C1CC0D111F4801F6B
:107DA0000BD141EA00014FF000004FF0004CB6E764
:107DB00011F4801F04BF01430020B4F1FD0C88BF03
:107DC000BCF5E06F3FF6AFAEB5EB030C04BFB6EB0E
:107DD000020C5FEA500C50F1000041EB045170BD01
:107DE0000EF0004E4EEA113114EB5C04C2BFD4EB2E
:107DF0000C0541EA045170BD41F480114FF0000EB2
:107E0000013C90E645EA060E8DE60CEA135594EA2D
:107E10000C0F08BF95EA0C0F3FF43BAF94EA0C0F30
:107E20000AD150EA01347FF434AF95EA0C0F7FF4A5
:107E300025AF104619462CE795EA0C0F06D152EAF9
:107E400003353FF4FDAE1046194622E750EA4106DD
:107E500018BF52EA43067FF4C5AE50EA41047FF4EE
:107E60000DAF52EA43057FF4EBAE12E74FF0FF3C53
:107E700006E000BF4FF0010C02E000BF4FF0010C24
:107E80004DF804CD4FEA410C7FEA6C5C4FEA430C9D
:107E900018BF7FEA6C5C1BD001B050EA410C0CBFEC
:107EA00052EA430C91EA030F02BF90EA020F00204E
:107EB000704710F1000F91EA030F58BF994208BFB5
:107EC00090422CBFD8176FEAE37040F00100704772
:107ED0004FEA410C7FEA6C5C02D150EA013C07D1C9
:107EE0004FEA430C7FEA6C5CD6D152EA033CD3D014
:107EF0005DF8040B704700BF8446104662468C460E
:107F00001946634600E000BF01B5FFF7B7FF002840
:107F100048BF10F1000F01BD4DF808EDFFF7F4FF69
:107F20000CBF012000205DF808FB00BF4DF808EDF4
:107F3000FFF7EAFF34BF012000205DF808FB00BF17
:107F40004DF808EDFFF7E0FF94BF012000205DF839
:107F500008FB00BF4DF808EDFFF7CEFF94BF0120EE
:107F600000205DF808FB00BF4DF808EDFFF7C4FFE7
:107F700034BF012000205DF808FB00BF4A0011D289
:107F800012F5001211D20DD56FF47873B3EB625273
:107F90000ED44FEAC12343F0004343EA505323FA7F
:107FA00002F070474FF00000704750EA013002D1F4
:107FB0004FF0FF3070474FF0000070474FEA41022A
:107FC000B2F1E04324BFB3F5001CDCF1FE5C0DD937
:107FD00001F0004C4FEAC0024CEA5070B2F1004F81
:107FE00040EB830008BF20F00100704711F0804F84
:107FF00021D113F13872BCBF01F00040704741F449
:1080000080114FEA5252C2F11802C2F1200C10FA4C
:108010000CF320FA02F018BF40F001004FEAC12330
:108020004FEAD32303FA0CFC40EA0C0023FA02F3D4
:108030004FEA4303CCE77FEA625307D150EA0133AA
:108040001EBF4FF0FE4040F44000704701F000407A
:1080500040F0FE4040F40000704700BF80F0004058
:1080600002E000BF81F0004142001FBF5FEA410310
:1080700092EA030F7FEA226C7FEA236C6AD04FEA10
:108080001262D2EB1363C1BFD21841404840414055
:10809000B8BF5B42192B88BF704710F0004F40F407
:1080A000000020F07F4018BF404211F0004F41F423
:1080B000000121F07F4118BF494292EA030F3FD0EF
:1080C000A2F1010241FA03FC10EB0C00C3F1200302
:1080D00001FA03F100F0004302D5494260EB400091
:1080E000B0F5000F13D3B0F1807F06D340084FEAFC
:1080F000310102F10102FE2A51D2B1F1004F40EBF1
:10810000C25008BF20F0010040EA03007047490058
:1081100040EB0000013A28BFB0F5000FEDD2B0FAF5
:1081200080FCACF1080CB2EB0C0200FA0CF0AABF18
:1081300000EBC25052421843BCBFD04018437047B6
:1081400092F0000F81F4000106BF80F400000132BC
:10815000013BB5E74FEA41037FEA226C18BF7FEA93
:10816000236C21D092EA030F04D092F0000F08BFD5
:108170000846704790EA010F1CBF0020704712F0BC
:108180007F4F04D1400028BF40F00040704712F1FB
:1081900000723CBF00F50000704700F0004343F060
:1081A000FE4040F4000070477FEA226216BF084696
:1081B0007FEA23630146420206BF5FEA412390EA59
:1081C000010F40F4800070474FF0000304E000BF4F
:1081D00010F0004348BF40425FEA000C08BF704700
:1081E00043F0964301464FF000001CE050EA0102C4
:1081F00008BF70474FF000030AE000BF50EA0102D9
:1082000008BF704711F0004302D5404261EB4101C5
:108210005FEA010C02BF84460146002043F0B643EA
:1082200008BFA3F18053A3F50003BCFA8CF2083A0F
:10823000A3EBC25310DB01FA02FC634400FA02FC18
:10824000C2F12002BCF1004F20FA02F243EB02001F
:1082500008BF20F00100704702F1200201FA02FC81
:10826000C2F1200250EA4C0021FA02F243EB020074
:1082700008BF20EADC70704753B94AB9002908BF2B
:1082800000281CBF4FF0FF314FF0FF3000F0E8B97D
:10829000ADF1080C6DE904CE00F084F8DDF804E0DF
:1082A000DDE9022304B07047430803F05533C01AD8
:1082B000830803F0333300F03330184400EB101020
:1082C00000F00F3000EB002000EB0040000E704784
:1082D00007EE900AF5EEC07AF1EE10FA01D400F044
:1082E00023B8F1EE677A08B517EE900A00F01CF893
:1082F000404261EB410108BD38B50022002304462D
:108300000D46FFF713FE28B920462946BDE8384040
:1083100000F02AB8204605F1004100F025F840425F
:1083200061EB410138BD00BFD0B5FFF735FB0C4B09
:10833000002206460F46FFF787FBFFF71FFE0446A5
:10834000FFF708FB074B0022FFF77EFB02460B46B8
:1083500030463946FFF7C0F9FFF710FE2146D0BD81
:108360000000F03D0000F041D0B50C4B0022064665
:108370000F46FFF769FBFFF701FE0446FFF7EAFA35
:10838000074B0022FFF760FB02460B46304639469A
:10839000FFF7A2F9FFF7F2FD2146D0BD0000F03D46
:1083A0000000F0412DE9F047089D0E4604460F46B7
:1083B000002B4AD194468C45B2FA82F260D942B180
:1083C000C2F12003974020FA03F30CFA02FC1F438A
:1083D00094404FEA1C4E1FFA8CF6B7FBFEF1230CBB
:1083E0000EFB117743EA074301FB06F098420AD9D6
:1083F0001CEB030301F1FF3780F01581984240F236
:108400001281023963441B1AA4B2B3FBFEF00EFBC7
:10841000103344EA034400FB06F6A6420AD91CEBDB
:10842000040400F1FF3380F00081A64240F2FD8099
:108430006444023840EA0140A41B00211DB1D4402D
:108440000023C5E90043BDE8F0878B4205D90DB193
:10845000C5E9000100210846F5E7B3FA83F10029D8
:1084600046D1B34202D3824200F2F580841A66EB11
:10847000030201201746002DE5D0C5E90047E2E7D9
:10848000002A40F09380A1EB0C034FEA1C471FFA2F
:108490008CFE0121B3FBF7F607FB1630230C43EAF1
:1084A00000430EFB06F0984208D91CEB030306F1CB
:1084B000FF3802D2984200F2D08046461B1AA4B27E
:1084C000B3FBF7F007FB103344EA03440EFB00FE56
:1084D000A64508D91CEB040400F1FF3302D2A645DF
:1084E00000F2B6801846A4EB0E0440EA0640A5E769
:1084F000C1F120078B4022FA07FC4CEA030C06FA74
:1085000001FE20FA07F426FA07F344EA0E0400FA03
:1085100001F84FEA1C404FEA1449B3FBF0FE1FFA82
:108520008CF600FB1E3349EA03430EFB06F999451E
:1085300002FA01F20BD91CEB03030EF1FF3A80F0B3
:108540008580994540F28280AEF1020E6344A3EB30
:108550000909A4B2B9FBF0F300FB139944EA0944FA
:1085600003FB06F6A64208D91CEB040403F1FF3016
:1085700068D2A64266D9023B644443EA0E40A41B7B
:10858000A0FB02E6B4427346B14652D34FD05DB170
:10859000B8EB030264EB090404FA07F722FA01F3CB
:1085A0001F43CC40C5E9007400214CE7C2F1200113
:1085B00020FA01F30CFA02FC26FA01F1964033434B
:1085C0004FEA1C471FFA8CFEB1FBF7F007FB1016B1
:1085D000190C41EA064100FB0EF68E4204FA02F441
:1085E00008D91CEB010100F1FF382DD28E422BD9A6
:1085F00002386144891B9BB2B1FBF7F607FB1611E9
:1086000043EA014306FB0EF1994208D91CEB030330
:1086100006F1FF3814D2994212D9023E63445B1A24
:1086200046EA004136E73946EDE6184602E7F045EE
:10863000ADD2BEEB020366EB0C060138B146A6E7ED
:108640004646ECE7034698E74046D3E7D6467EE742
:108650006444023847E708460DE7023E63442DE7CD
:10866000704700BF13B50C22C0B25043144B012118
:108670001C18185812F03CFA684612F081F8238949
:10868000009340F203136068ADF80430694600239C
:108690008DF8073012F032F801230A48A17A1A4601
:1086A00011F065FE074811F0A1FE0648022111F005
:1086B000A5FE0028F9D0034811F09DFE02B010BDC0
:1086C000F0510408002101407FB508284FF0010255
:1086D00002FA00F21BD00A281CD006280CBF4FF06B
:1086E000407300230D4900930A600D4A0D48136042
:1086F0000023CDE90233ADF8043004936946012329
:108700008DF8143011F0E0FD07B05DF804FB4FF078
:108710000073E7E74FF08073E4E700BFCC1E002052
:10872000D01E00200021014000B58BB011F0BEFD2D
:1087300004A811F0EFFD684611F00AFE01214FF484
:10874000007012F0F9F900236846CDE90033CDE955
:10875000023311F0E9FD0C20FFF7B6FF03480121B9
:1087600011F0FCFD0BB05DF804FB00BF00210140DF
:1087700038B5FFF777FFFFF7FDF80022094BFFF749
:1087800063F9094B044618680D46FFF7E3F8024603
:108790000B4620462946FFF781FAFFF70FFC00EE53
:1087A000100A38BD00000840CC1E0020F7B50C238D
:1087B000C6B27343134C0D46E718E058012112F07E
:1087C00097F90023012DADF806303B8900930CBFCB
:1087D000012300238DF8043004D0022D0ED1012393
:1087E0008DF8073001238DF805300C2303FB064478
:1087F0006946606811F082FF03B0F0BD032DF1D12E
:108800000223EDE7F0510408054BC0B20C2202FB35
:1088100000330A1E5868198918BF012211F0C0BF21
:10882000F051040808B5064B0C22C0B202FB00331D
:108830001989586811F0AAFF431E5842584108BDD3
:10884000F051040830B5124D87B00446284612F0A6
:10885000B3F94FF482720023ADF808200DF1060140
:108860004FF400722846ADF80630ADF80A30ADF886
:108870000C30ADF80E30ADF81020ADF81430ADF876
:108880001630ADF8124012F0F3F907B030BD00BF5A
:108890000030014070B5032292B0002101202BF07E
:1088A0004DFD434B434C18600322002101202BF067
:1088B00045FD414B186001202BF04DFE3F4B01213F
:1088C00018604FF4805012F037F90121084612F079
:1088D0000FF901214FF4800012F00AF90522114628
:1088E000204611F062FF20460522062111F05DFFAF
:1088F00020460522072111F058FF314B202201A903
:108900002046CDE9012311F0F9FE802301A920467C
:108910000193402611F0F2FE01A92046019611F0C4
:10892000EDFE06964FF48063264E09930024264BF5
:1089300004934FF0C0654FF40033214630460D9349
:10894000CDE90E4410940B940C9411940A9408945D
:1089500007940594039511F015FE03A9304611F014
:10896000E7FD0395194D06942146284611F00AFEAD
:1089700003A9284611F0DCFD07238DF801308DF89E
:1089800002404423012468468DF800308DF80340EE
:1089900012F038F8382368468DF8003012F032F8BB
:1089A0002820FFF74FFF0A4B1C7012B070BD00BFAC
:1089B000E81E002000000240E01E0020D81E00201B
:1089C00002020002886402400C3001401064024040
:1089D000ED1E002001F17043B3F5803F70B50446F1
:1089E0000E46154604D22B492B48E22227F0F2FD11
:1089F00005F17043B3F5803F04D226492648E322AF
:108A000027F0E8FD254B2648C3F894600122C3F8FF
:108A10008C401021DD615C6111F0F6FD01222148DE
:108A2000102111F0F1FD20491D4811F0D7FD1F491B
:108A30001C4811F0D3FD1A48012111F0A3FD19487B
:108A4000012111F09FFD1A480122022112F03BF989
:108A500001221146164812F036F91548012112F08C
:108A600026F9144B4FF0FF3118682BF0E9FE01286E
:108A70000ED1114B4FF0FF3118682BF0E1FE431E71
:108A80005C425C410A48002112F011F9204670BD99
:108A90000024F7E78C520408808704080064024031
:108AA0008864024010640240400F00203D008010A6
:108AB00000300140E81E0020E01E002010B5064BEB
:108AC00004464FF0FF3118682BF0BAFE2046BDE88F
:108AD0001040FFF7B7BE00BFD81E00200348002398
:108AE00000681A4619462BF061BC00BFD81E002052
:108AF00013B50024224614480194102111F084FD7E
:108B00001249114811F0A0FD10490F4811F066FDFF
:108B100022460F48022112F0D6F80B48214611F0E8
:108B200031FD0C4B01A918682BF090FD019B4BB156
:108B30004FF0E0234FF08052C3F8042DBFF34F8F66
:108B4000BFF36F8F02B010BD8864024000080020A0
:108B500000300140E81E002013B5002422461448CE
:108B60000194102111F050FD1249114811F06CFDD3
:108B700010490F4811F032FD22460F48012112F032
:108B8000A2F80B48214611F0FDFC0C4B01A9186816
:108B90002BF05CFD019B4BB14FF0E0234FF0805276
:108BA000C3F8042DBFF34F8FBFF36F8F02B010BD1A
:108BB000106402402000001000300140E01E002040
:108BC00030B5024644680020844202DC4FF0FF309A
:108BD00030BD13681D5C8D42FAD00344851C5B7860
:108BE0005819F1E710B5064A064C0023237013709C
:108BF0000CF08CFA2046BDE810400CF0CDBA00BF56
:108C00005C2000205D20002010B50378EB2B04468B
:108C100005D01549154828F06DF9002010BD072131
:108C200027F081FFE379C0B2834201D01049F1E718
:108C3000237A0BB10F49EDE7617A04F108000231A4
:108C400027F071FF617A6318C2B29B7A934204D015
:108C50000949064828F04EF9DFE704F10A03C4E9A0
:108C60001C310120DAE700BFD552040865F701087E
:108C7000055304083A53040870530408F8B5054630
:108C800016461F46FFF79CFF041E10DB29680B19D0
:108C9000013F5D78BD42A8BF3D4602342A462144CB
:108CA0003046FEF71DFC002373552846F8BD00230F
:108CB00033704FF0FF35F8E72DE9F041224B234E9A
:108CC0001B783078834209D9214C70222346002139
:108CD0000CF0A8FA28B93378013333700020BDE8CE
:108CE000F08100232046E367FFF78EFF357838B325
:108CF000184FC5EB051307EB43073A461E23012126
:108D000004F17000FFF7BAFF0028D8BF00270FFA60
:108D100085F8C4F88470104F08EB880807EB480703
:108D20003A460A23022104F17000FFF7A7FF00284A
:108D3000D8BF00270135C4F8887035702046CEE7CB
:108D400001353570CAE700BF5D2000205C2000209F
:108D5000D01F0020561F00202E1F0020F0B53F4DD1
:108D60002B68032B8DB003D9002630460DB0F0BD23
:108D70000DF10D0300933A4802230022422106F030
:108D800095FB0028F0D00DF10F0300270093344825
:108D9000CDF80F700C234FF4C8524321CDF8137057
:108DA000CDF8177006F082FB0028DDD02C682C4827
:108DB00004F144038DF80C3003AB00934FF4C05220
:108DC0000123432106F0FFFB2B689DF80C1024487B
:108DD00001332B600DF11B0300933A46152306F077
:108DE00065FB0028C0D0BDF81B204DF6BC439A425D
:108DF000BAD11C4D8C2202FB045639463046FDF791
:108E00006BFF194A9DF81F30737102EB04109DF837
:108E10002030B37127010DF1220301460DF12E0C14
:108E200053F804EB41F804EB6345F9D1B3F800C003
:108E3000A1F800C09B788B703A440023D3738C2335
:108E400003FB0453094ADA67094A9DF80C101155CF
:108E50002244C3F88400C3F8802086E76020002005
:108E6000B8060020A820002068200020C4C2040802
:108E7000642000201FB50DF10E0300930648022365
:108E80000022412106F012FB10B10A202CF09EFBBB
:108E9000012005B05DF804FBB8060020064A1378EF
:108EA0004BB9064B06491960064B5B1A06499B10E5
:108EB0000B60012313707047D8220020E0220020AD
:108EC00084E40608CCE40608DC22002008B5FFF79D
:108ED000E5FF014B186808BDDC22002070B50D4687
:108EE000FFF7DCFF094B1A68094B04461968002399
:108EF0009A4201DC002070BD51F823000678A6429A
:108F000002D14678AE42F6D00133F1E7DC220020F0
:108F1000E02200202DE9F041FFF7C0FF0B4B1F6856
:108F20000B4BD3F8008006460024A74203DC002543
:108F30002846BDE8F08158F8245030466968FDF7AE
:108F40008FFF0028F4D00134EFE700BFDC220020BF
:108F5000E02200202DE9F843114A124B124D134E26
:108F6000134F32609B1A9B102B60124BDFF8488026
:108F7000DFF8489001221A7000242B689C4201DB24
:108F8000BDE8F883336853F824301A684146002A54
:108F900008BF3A46484627F0ADFF0134EDE700BF71
:108FA000CCE40608D4E40608E4220020E8220020ED
:108FB000A36F0408D9220020AB6F040865F70108ED
:108FC00008B5044B1B780BB9FFF7C4FF024B1868B8
:108FD00008BD00BFD9220020E422002010B5084BB4
:108FE0001B7804460BB9FFF7B5FF064B1B68A3427D
:108FF000C5BF054B1B68002053F8240010BD00BFFF
:10900000D9220020E4220020E8220020014B186829
:10901000704700BFF0220020044B1B688342C3BF8F
:10902000034B8C2202FB003000207047F02200200E
:109030000000001008B50346407928B19979FFF780
:109040004DFF00B9054808BDD3F884000028F9D0C9
:109050000378002BF6D0FFF75DFFF2E7D0C20408DB
:10906000826F044B9A4203D10349044827F042BF60
:10907000704700BFD0C20408CE6F040865F701082E
:109080002DE9F84F4C4B1C783CBBFFF799FFDFF8FC
:1090900030B18146A04625464FF08C0AC1451EDC02
:1090A000464EDFF834913560454D0027A846BA4654
:1090B000BB46012231688F4237DB02B93260DFF8EC
:1090C0001C81DFF81C91002733689F4252DB0CB1F2
:1090D00000233360384A01231370BDE8F88F4046FF
:1090E000FFF77CFF074658B143684BB1984738B14A
:1090F00005FB0AB6BB689847014620B9032DCFD8B7
:1091000008F10108CAE7032DCAD88C223046FEF7C1
:10911000E7F9F7673046FFF78DFF0135B067304656
:10912000FFF79EFFEDB28C36E4E7D8F87810896837
:109130001BEA010107D011EA090F04D02149224896
:1091400027F0D8FE0022D8F87810C9681AEA010F73
:1091500004D01E491C4827F0CDFE0022D8F8780024
:1091600081684BEA010BC16801374AEA010A08F13C
:109170008C089FE7ECB9AB6F1B7C1BB114490A78D4
:109180008AB90B700024AA6F98F80010537C0B4327
:1091900088F80030937C99F80020134389F8003058
:1091A00001378C3590E79342ECD00A49064827F006
:1091B000A1FE0124E7E700BFEC220020F0220020FE
:1091C00000000010FD6F040865F7010876700408C0
:1091D000EF220020ED700408F3E3FFFFEE220020F1
:1091E000ED220020014B1878704700BFEF220020CD
:1091F000014B1878704700BFEE220020014B187811
:10920000704700BFED2200204FF0A04070470000E3
:109210004FF4883070470000014B1868704700BF5A
:10922000AC2C002041F6FF7070474FF4805070471F
:1092300041F2F40070472DE9F0411E468368044670
:1092400090460F46984710F0010F14BF03250125E3
:10925000820748BF45F020054307636848BF45F0D3
:1092600040050BB145F0040523680BB145F0080536
:10927000237B5B4203F010031D433570236A626A4F
:10928000003B18BF01230AB143F002037370636906
:10929000C6F80230A369C6F80630C6F80A80112263
:1092A000394606F10E00FDF73FFCE36993B13846FD
:1092B000FDF7A6FC33183A229A73E4690546204666
:1092C000FDF79EFC0F35024621467019BDE8F041BE
:1092D000FEF706B9BDE8F0812DE9F04F85B000AF8B
:1092E00005460C469046FFF791FEB5F1805FF860A9
:1092F0005BD2224600214046FDF7EEFC6DB93CB141
:109300000323013C88F80030E4B24FF001093CB976
:1093100001201437BD46BDE8F08F4FF00009F6E795
:10932000FA68C7F804D005EB090A0AF1FF33B2EB7B
:10933000931F4FEA9316EBDD90B03046C7F808D084
:10934000FFF76AFE8346002140226846FDF7C4FC11
:10935000DBF87810486930B1720749686B4602F152
:109360008052FFF768FFDBF87810886930B1BB687E
:109370004968721C20335207FFF75DFFB6010136C2
:10938000AAEB0601C1F14006BB68A642A8BF26466B
:109390000B4408EB090032461946A41BFEF7A0F85F
:1093A000E4B2D7F804D0B144B1E7FB68280F013824
:1093B0005B00B3EB500F4FEA500901DC0020A8E737
:1093C00000F001064846FFF727FE826F536906B199
:1093D0009369002BF2D05B68002BEFD005F1704051
:1093E000A0EB497042462146A0EB0670984790E7F3
:1093F000F0B5B0F5805F85B004460E46154619D22B
:109400004FF480712A4802F059FC2949013C00239D
:10941000B34202DB012005B0F0BD671C06D0A042BC
:1094200006DD0A5DEA543C460133F1E70246F9E7FE
:109430000022F7E7A0F58053B3F5805F18D24FF410
:1094400080711B4802F05CFCA4F580541849013C73
:109450000023B342DEDA621C06D0A04206DD0A5DBC
:10946000EA5401340133F4E70246F9E70022F7E752
:1094700010F0FF01A0F5005716D10D2E16D11022C5
:109480006846FDF729FC6946C7F3072002F0F4FBA4
:10949000019B2B60029B6B60039BAB60009B003BBE
:1094A00018BF01232B73B5E70020B4E70846B2E7E5
:1094B0001C25002010B4084C0B46246811461A18CD
:1094C000A24204D85DF8044B1A4604F07DBD00208A
:1094D0005DF8044B704700BFAC2C002003461046DB
:1094E000CA18B2F5005F03D20A4699B205F07CBAF9
:1094F0000020704710B45418702C04D85DF8044B49
:1095000089B20BF08FBE00205DF8044B704700005D
:1095100017F0DCBB0346B3F5805F10B510460C4670
:1095200012D2B3F5806F20D254FA83F2342AD9B222
:109530001BD834221B0A02FB03130D49224619448F
:10954000FDF7CEFF012010BDA3F58053B3F5806F6A
:109550000BD254FA83F23D2AD9B206D83D221B0A17
:1095600002FB031303492246E9E70020EBE700BFB3
:10957000F4C8002000C80020032970B50446154631
:1095800003D8036903B15A5470BD0429FCD1EA071A
:1095900002D5036A03B19847AB07F5D5636A002B80
:1095A000F2D0BDE8704018472DE9F04704460E465A
:1095B0001746FFF72BFDB4F1805F054622D24FF02E
:1095C00000081AE0B4F5805F14D3A4F58059B5EB18
:1095D000991F4FEA99100DDDFFF71EFD836F17F8F5
:1095E000082019F0200F0CBF5869986909F01F0175
:1095F000FFF7C2FF08F101080134B045E2D30120B2
:10960000BDE8F087230F013B4500B5EB530F4FEA50
:10961000530801DC0020F3E7404603F00105FFF7A3
:10962000FBFC826F536905B19369002BF2D0D3F82C
:1096300000E0BEF1000FEDD004F17040A0EB4870E7
:109640003A463146A0EB0570F446BDE8F047604766
:1096500003461046CA18B2F5005F03D20A4699B213
:1096600005F0DAB90020704710B45418702C04D8F3
:109670005DF8044B89B20BF037BE00205DF8044B57
:109680007047000017F010BBB0F5805FF8B50D46CD
:1096900011461BD2B0F5806F35D255FA80F3342BCA
:1096A000C2B230D8040A342318486343C61803F5FD
:1096B0006D73134400272A46184486F8E473FDF7B7
:1096C0000FFF204621F0E2FF0120F8BDA0F58050F9
:1096D000B0F5806F17D255FA80F33D2BC2B212D885
:1096E000040A3D2309486343C61803F53073134445
:1096F00000272A46184486F8FC72FDF7F1FEE0B216
:1097000022F044F8E0E70020DFE700BF40C500207A
:10971000014819F0E7BC00BFF4C204082DE9F84382
:10972000FFF7D4FBFFF7ACFCFFF7F2FFFFF76EFC8F
:109730001449DFF85880144FDFF85490024606466B
:10974000114827F0D7FB0024B44201DBBDE8F883C1
:109750002046FFF761FC836FDA69054652B15A680B
:1097600052B123464946384627F0C4FBAB6F284622
:10977000DB6998470134E7E722464146384627F03F
:10978000B9FBF3E72971040865F70108787104084B
:10979000467104082DE9F047FFF738FCDFF84490E4
:1097A000DFF84480DFF844A0064600240127B442D5
:1097B00002DB3846BDE8F0872046FFF72DFC836FBB
:1097C0001B6A3BB198472246054628B151464046A0
:1097D00027F090FB0134EAE74946404627F08AFB30
:1097E0002F46F7E7BC71040865F701089D7104086E
:1097F00070B5134D134E034604462A4603CAB242BF
:1098000020606160154604F10804F6D10E4D0F4E3C
:1098100003F128042A4603CAB2422060616015465B
:1098200004F10804F6D10A4C0A4D5033224603CA0B
:10983000AA4218605960144603F10803F6D170BDBE
:1098400000000240280002400004024028040240B8
:10985000000802402808024070B5114D0246034638
:1098600000F12806186859682C4603C40833B3422F
:109870002546F7D10B4D02F15006186859682C4661
:1098800003C40833B3422546F7D1074D7832186830
:1098900059682C4603C4083393422546F7D170BD5E
:1098A0000000024000040240000802402DE9F84395
:1098B0000F4CDFF84080DFF8409005460127002676
:1098C00034F8021C54F8060C10F060FF854206D0F4
:1098D0002B4622464146484627F00CFB002701361E
:1098E0000B2E04F10C04EBD13846BDE8F88300BF21
:1098F0002E010020DD71040865F701082DE9F04311
:10990000A3B00DF079FF01210546072011F0F0F812
:1099100004A8394CFFF76CFF27460B264FF00008D0
:10992000BB8857F80C0B02A9CDE9023810F0E6FE0F
:10993000013EF5D1002D34D04FF001093746A38800
:109940002068029302A9ADF80C908DF80E7010F00B
:10995000D5FEA188206810F01FFF0197019BB3F589
:109960007A7F41DB0120FFF7A1FFA18880462068B4
:1099700010F014FF0197019BB3F57A7F38DB0020CC
:10998000FFF794FF0136051E02A920688DF80C70C0
:1099900018BF454610F0B2FE0B2E03D00C34002D3C
:1099A000CDD1002504A8FFF757FFCDB101231348FF
:1099B000ADF80C308026002302A98DF80E3040242B
:1099C000029610F09BFE0D48029402A910F096FE3C
:1099D0000A48314610F0E2FE0848214610F0DEFE4B
:1099E000284623B0BDE8F083019B01330193B5E71E
:1099F000019B01330193BEE72801002000040240CF
:109A00002DE9F04FA5B00DF0F7FE01210646072025
:109A100011F06EF806A8DFF8C091FFF7E9FE002408
:109A20004D462746AB8855F80C0B04A90134CDE907
:109A3000043710F063FE0B2CF4D1002E56D0664D87
:109A40004FF0010B4FF00008AB882868049304A97D
:109A5000ADF814B08DF8168010F050FEA988286873
:109A600010F09AFECDF80C80039BB3F57A7F63DB90
:109A70004B46B246002718460121009300F0E8F952
:109A800001370028009B08BF4FF0000A0B2F03F19D
:109A90000C03F0D1A988286810F080FECDF80C8066
:109AA000039BB3F57A7F4BDB4A46374600231046CB
:109AB00000210193009200F0CBF9019B009A00284D
:109AC00003F1010308BF00270B2B02F10C02EED1BA
:109AD000002F28688DF8148004A918BF574610F08D
:109AE0000DFE013C03D00C35002FADD100273B4EBD
:109AF000082435464FF00008AB8855F80C0B04A934
:109B0000CDE9043810F0FAFD013CF5D1039442F29E
